:0300000002051DD9
:0C051D00787FE4F6D8FD75817A02050CA9
:1004E400626F6F746C6F616465722073746172748F
:0404F400210D0A00CC
:10050C001204F87BFF7A0479E4E4FF1203ED020A8B
:01051C0000DE
:1004AE00D3EF9400EE648094804015E4FDFC0DBD06
:1004BE0000010CED646E4C70F5EF1F70E31E80E0D2
:0104CE00220B
:0803ED008F228B238A2489254D
:1003F5007535007536007537268B618A6289638588
:1004050035648536658537667B007A00793912044F
:10041500368F387B007A0079391204CFAD077B001F
:100425007A00793912048B753500753600753700F9
:0104350022A4
:1004F8007598D053890F438920758DFD758BFDD272
:040508008ED2AC22C1
:080529008F993099FDC299225F
:06048B008B618A628963A7
:10049100E4FEEEC39D5015AB61AA62A9638E82751D
:0C04A100830012035FFF1205290E80E6A5
:0104AD00222C
:10035F00BB010CE58229F582E5833AF583E0225053
:10036F0006E92582F8E622BBFE06E92582F8E2229D
:0D037F00E58229F582E5833AF583E49322B7
:1004CF00E4FFFE12038C600C0FEF70010E09E97050
:0504DF00F20A80EF228B
:1004360085616A85626B85636CEBC564FBEAC5659D
:10044600FAE9C566F97F09786D12038CF60809E9A1
:0E04560070010ADFF4AB64AA65A96602005FBC
:10038C00BB010689828A83E0225002E722BBFE026F
:09039C00E32289828A83E49322A2
:10000300E576246AF8E60576227867300702786A8F
:10001300E475F0011203B702038C2000EB7F2ED2AC
:10002300008018EF540F2490D43440D4FF30040BD5
:10003300EF24BFB41A0050032461FFE57760021573
:1000430077057AE57A7002057930070D7867E475EC
:10005300F0011203B7EF0203A50204647403D2078D
:100063008003E4C207F5768B678A688969E4F577CC
:10007300F579F57AE57760077F2012003E80F57504
:1000830078FFC201C200C202C203C205C206C2088F
:1000930012000CFF700D3007057F0012004FAF7A7E
:1000A300AE7922B4255FC2D5C20412000CFF24D05E
:1000B300B40A00501A75F00A787730D50508B6FFF0
:1000C3000106C6A426F620D5047002D20380D924E3
:1000D300CFB41A00EF5004C2E5D20402024FD2019A
:1000E30080C6D20080C0D20280BCD2D580BAD205ED
:1000F30080B47F2012003E2002077401B5770040D0
:10010300F1120003FF12003E020077D208D20680EC
:1001130095120003FB120003FA120003F94A4B7015
:100123000679207A037BFF20022EE577602A7E0082
:100133008E8275830012035F60060EEE657870F0A1
:10014300C2D5EBC0E0EAC0E0E9C0E0EE120296D00F
:10015300E0F9D0E0FAD0E0FB12038CFF60AAEBC019
:10016300E0EAC0E0E9C0E012003ED0E02401F9D0AB
:10017300E03400FAD0E0FBE5780460DCD578D98080
:10018300877BFF7A027992D202809C791080027970
:1001930008C206C2088008D2D5790A8004790AC247
:1001A300D5E578047002F578E4FAFDFEFF1200034A
:1001B300FC7B08200113120003FD7B1030000A12A0
:1001C3000003FE120003FF7B20EC3382D592D5504F
:1001D30013C3E43000069FFFE49EFEE42001039D69
:1001E300FDE49CFCE4CBF8C201EC700CCFCECDCC8B
:1001F300E824F8F870F38017C3EF33FFEE33FEED16
:1002030033FDEC33FCEB33FB994002FB0FD8E9EBF6
:10021300300105F8D0E0C448B201C0E00AEC4D4E0D
:100223004F78207B0070C2EAB5780040BCC0E01272
:100233000298D0F0D0E0200104C4C0E0C4B201C0F1
:10024300F0120027D0F0D5F0EB0200771203C701BC
:100253001453018E5800E54C00E14201924F019A7C
:0F02630044019A4900FA4301A0550184460184E1
:100272004501844703405000E92D00ED2E01102B6B
:1002820000F123010E2003292A00A94800000108D9
:100292003F3F3F00790AA2D5200314300509B91067
:1002A200020404B9080104A2D52006025001042068
:1002B20002689202B577005034C0E07F2030031903
:1002C2007F30A20272067205500F1202EFC202C202
:1002D20006C205C2087F30800F300503E9C0E01274
:1002E200003E300503D0E0F9D0E0B577CC300517F9
:1002F2007F30B9100C12003E7F583004077F78809F
:1003020003B9080312003E3002057F2D02003E7F32
:10031200202008F87F2B2006F322920280CF286E3D
:10032200756C6C2900D2011200033001F8C2017809
:100332007730D50108F60200A92D50434958120022
:10034200032403B405004001E490033B9312002F01
:0D035200743A12002FD20375770402018E59
:1003A500BB010689828A83F0225002F722BBFE0137
:0203B500F32231
:1003B700FAE6FB0808E6F925F0F618E6CA3AF62247
:1003C700D083D082F8E4937012740193700DA3A3C5
:1003D70093F8740193F5828883E4737402936860D9
:0603E700EFA3A3A380DFD9
:10046400EFB40A07740D12046F740A309811A89936
:10047400B8130CC2983098FDA899C298B811F630F8
:0704840099FDC299F59922D0
:00000001FF
